{
  "address": "0xcdee293Cc814FE665aed2a3e20Bff8b23f85529f",
  "abi": [
    {
      "inputs": [
        {
          "internalType": "address",
          "name": "_api3Token",
          "type": "address"
        },
        {
          "internalType": "address",
          "name": "_api3Pool",
          "type": "address"
        }
      ],
      "stateMutability": "nonpayable",
      "type": "constructor"
    },
    {
      "anonymous": false,
      "inputs": [
        {
          "indexed": true,
          "internalType": "address",
          "name": "deployer",
          "type": "address"
        },
        {
          "indexed": true,
          "internalType": "address",
          "name": "beneficiary",
          "type": "address"
        },
        {
          "indexed": false,
          "internalType": "uint32",
          "name": "startTimestamp",
          "type": "uint32"
        },
        {
          "indexed": false,
          "internalType": "uint32",
          "name": "endTimestamp",
          "type": "uint32"
        },
        {
          "indexed": false,
          "internalType": "uint192",
          "name": "amount",
          "type": "uint192"
        }
      ],
      "name": "DeployedStakeableVesting",
      "type": "event"
    },
    {
      "inputs": [],
      "name": "api3Token",
      "outputs": [
        {
          "internalType": "address",
          "name": "",
          "type": "address"
        }
      ],
      "stateMutability": "view",
      "type": "function"
    },
    {
      "inputs": [
        {
          "internalType": "address",
          "name": "beneficiary",
          "type": "address"
        },
        {
          "internalType": "uint32",
          "name": "startTimestamp",
          "type": "uint32"
        },
        {
          "internalType": "uint32",
          "name": "endTimestamp",
          "type": "uint32"
        },
        {
          "internalType": "uint192",
          "name": "amount",
          "type": "uint192"
        }
      ],
      "name": "deployStakeableVesting",
      "outputs": [
        {
          "internalType": "address",
          "name": "stakeableVesting",
          "type": "address"
        }
      ],
      "stateMutability": "nonpayable",
      "type": "function"
    },
    {
      "inputs": [],
      "name": "stakeableVestingImplementation",
      "outputs": [
        {
          "internalType": "address",
          "name": "",
          "type": "address"
        }
      ],
      "stateMutability": "view",
      "type": "function"
    }
  ],
  "transactionHash": "0xc68e81e373a44051308b422ef69d51d0440736603ba93df434fd220657c7f8ed",
  "args": [
    "0x0b38210ea11411557c13457D4dA7dC6ea731B88a",
    "0x6dd655f10d4b9E242aE186D9050B68F725c76d76"
  ],
  "numDeployments": 1,
  "solcInputHash": "a4b13d8966d833f9703d19e01688ddfd",
  "bytecode": "0x60c060405234801561001057600080fd5b506040516121a23803806121a283398101604081905261002f91610117565b6001600160a01b0382166100895760405162461bcd60e51b815260206004820152601660248201527f41706933546f6b656e2061646472657373207a65726f00000000000000000000604482015260640160405180910390fd5b6001600160a01b038216608052604051829082906100a6906100ee565b6001600160a01b03928316815291166020820152604001604051809103906000f0801580156100d9573d6000803e3d6000fd5b506001600160a01b031660a0525061014a9050565b611ba18061060183390190565b80516001600160a01b038116811461011257600080fd5b919050565b6000806040838503121561012a57600080fd5b610133836100fb565b9150610141602084016100fb565b90509250929050565b60805160a05161048661017b6000396000818160a1015261012a015260008181607a015261019f01526104866000f3fe608060405234801561001057600080fd5b50600436106100415760003560e01c80631c3e7dd814610046578063613d517d14610075578063f0f0ec011461009c575b600080fd5b6100596100543660046103b7565b6100c3565b6040516001600160a01b03909116815260200160405180910390f35b6100597f000000000000000000000000000000000000000000000000000000000000000081565b6100597f000000000000000000000000000000000000000000000000000000000000000081565b60408051606086811b6bffffffffffffffffffffffff19908116602084015260e087811b6001600160e01b031990811660348601529087901b1660388401529284901b67ffffffffffffffff1916603c83015233901b9091166054820152600090610168907f000000000000000000000000000000000000000000000000000000000000000090606801604051602081830303815290604052805190602001206102f7565b6040516323b872dd60e01b81523360048201526001600160a01b0380831660248301526001600160c01b03851660448301529192507f0000000000000000000000000000000000000000000000000000000000000000909116906323b872dd906064016020604051808303816000875af11580156101ea573d6000803e3d6000fd5b505050506040513d601f19601f8201168201806040525081019061020e9190610427565b50604051631b08932960e01b81523360048201526001600160a01b03868116602483015263ffffffff8087166044840152851660648301526001600160c01b0384166084830152821690631b0893299060a401600060405180830381600087803b15801561027b57600080fd5b505af115801561028f573d6000803e3d6000fd5b50506040805163ffffffff8881168252871660208201526001600160c01b0386168183015290516001600160a01b03891693503392507f356d6eba5b7800134f3f2ba91614e7cd962676648d3f42d5c57682427ec70a489181900360600190a3949350505050565b6000763d602d80600a3d3981f3363d3d373d3d3d363d730000008360601b60e81c176000526e5af43d82803e903d91602b57fd5bf38360781b1760205281603760096000f590506001600160a01b0381166103985760405162461bcd60e51b815260206004820152601760248201527f455243313136373a2063726561746532206661696c6564000000000000000000604482015260640160405180910390fd5b92915050565b803563ffffffff811681146103b257600080fd5b919050565b600080600080608085870312156103cd57600080fd5b84356001600160a01b03811681146103e457600080fd5b93506103f26020860161039e565b92506104006040860161039e565b915060608501356001600160c01b038116811461041c57600080fd5b939692955090935050565b60006020828403121561043957600080fd5b8151801515811461044957600080fd5b939250505056fea2646970667358221220f65391d47bf49eb499d14f3f05bf21d38ea91af2f9646bb979e8b6c88096e1d264736f6c6343000811003360c06040523480156200001157600080fd5b5060405162001ba138038062001ba183398101604081905262000034916200020d565b6200003f336200012c565b6001600160a01b0382166200009b5760405162461bcd60e51b815260206004820152601660248201527f41706933546f6b656e2061646472657373207a65726f0000000000000000000060448201526064015b60405180910390fd5b6001600160a01b038083166080528116620000f95760405162461bcd60e51b815260206004820152601560248201527f41706933506f6f6c2061646472657373207a65726f0000000000000000000000604482015260640162000092565b6001600160a01b0380821660a052600180546001600160a01b0319169091179055620001246200017c565b505062000245565b600080546001600160a01b038381166001600160a01b0319831681178455604051919092169283917f8be0079c531659141344cd1fd0a4f28419497f9722a3daafe3b4186f6b6457e09190a35050565b6200018662000194565b6200019260006200012c565b565b6000546001600160a01b03163314620001925760405162461bcd60e51b815260206004820181905260248201527f4f776e61626c653a2063616c6c6572206973206e6f7420746865206f776e6572604482015260640162000092565b80516001600160a01b03811681146200020857600080fd5b919050565b600080604083850312156200022157600080fd5b6200022c83620001f0565b91506200023c60208401620001f0565b90509250929050565b60805160a0516118a3620002fe60003960008181610277015281816103a00152818161044801528181610a9001528181610b4801528181610bbf01528181610c3601528181610cd501528181610d5801528181610de301528181610e6e01528181610ffe015281816112c301528181611376015281816114eb015261157b01526000818161023d015281816106dc015281816108fb015281816109d50152818161106f015281816111d201526112f201526118a36000f3fe608060405234801561001057600080fd5b50600436106101375760003560e01c806363e8a6c1116100b8578063d107981e1161007c578063d107981e146102ba578063d950975a14610300578063dee133e714610316578063e13b0f7414610329578063e452f3f314610331578063f2fde38b1461034457600080fd5b806363e8a6c11461025f5780636fe2a2d714610272578063715018a6146102995780638b5a158a146102a15780638da5cb5b146102a957600080fd5b806338af3eed116100ff57806338af3eed146101925780633bb3704e146101c257806344c63eec146101ca5780634a283c2814610225578063613d517d1461023857600080fd5b80630712b69f1461013c5780630ba83027146101515780631b089329146101645780631c31f7101461017757806324a7ab161461018a575b600080fd5b61014f61014a36600461160e565b610357565b005b61014f61015f36600461160e565b610408565b61014f610172366004611655565b61047f565b61014f6101853660046116ce565b61082d565b61014f6108db565b6001546101a5906001600160a01b031681565b6040516001600160a01b0390911681526020015b60405180910390f35b61014f610a7b565b6002546101f99063ffffffff80821691640100000000810490911690600160401b90046001600160c01b031683565b6040805163ffffffff94851681529390921660208401526001600160c01b0316908201526060016101b9565b61014f61023336600461160e565b610b08565b6101a57f000000000000000000000000000000000000000000000000000000000000000081565b61014f61026d36600461160e565b610b7f565b6101a57f000000000000000000000000000000000000000000000000000000000000000081565b61014f610bf6565b61014f610c0a565b6000546001600160a01b03166101a5565b6102c2610ca9565b60408051978852602088019690965294860193909352606085019190915260808401526001600160a01b031660a083015260c082015260e0016101b9565b610308610ef9565b6040519081526020016101b9565b61014f6103243660046116ce565b610fb5565b61014f61102d565b61014f61033f36600461160e565b611282565b61014f6103523660046116ce565b6113ad565b6001546001600160a01b0316331461038a5760405162461bcd60e51b8152600401610381906116f2565b60405180910390fd5b60405163106d08df60e01b8152600481018290527f00000000000000000000000000000000000000000000000000000000000000006001600160a01b03169063106d08df906024015b600060405180830381600087803b1580156103ed57600080fd5b505af1158015610401573d6000803e3d6000fd5b5050505050565b6001546001600160a01b031633146104325760405162461bcd60e51b8152600401610381906116f2565b60405163e67729b760e01b8152600481018290527f00000000000000000000000000000000000000000000000000000000000000006001600160a01b03169063e67729b7906024016103d3565b6001546001600160a01b0316156104ce5760405162461bcd60e51b8152602060048201526013602482015272105b1c9958591e481a5b9a5d1a585b1a5e9959606a1b6044820152606401610381565b6001600160a01b0385166105195760405162461bcd60e51b81526020600482015260126024820152714f776e65722061646472657373207a65726f60701b6044820152606401610381565b6001600160a01b03841661056a5760405162461bcd60e51b815260206004820152601860248201527742656e65666963696172792061646472657373207a65726f60401b6044820152606401610381565b8263ffffffff166000036105b75760405162461bcd60e51b815260206004820152601460248201527353746172742074696d657374616d70207a65726f60601b6044820152606401610381565b8263ffffffff168263ffffffff16116106125760405162461bcd60e51b815260206004820152601860248201527f456e64206e6f74206c61746572207468616e20737461727400000000000000006044820152606401610381565b610620630966018042611738565b8263ffffffff1611156106755760405162461bcd60e51b815260206004820152601c60248201527f456e6420697320746f6f2066617220696e2074686520667574757265000000006044820152606401610381565b806001600160c01b03166000036106bc5760405162461bcd60e51b815260206004820152600b60248201526a416d6f756e74207a65726f60a81b6044820152606401610381565b6040516370a0823160e01b81523060048201526001600160c01b038216907f00000000000000000000000000000000000000000000000000000000000000006001600160a01b0316906370a0823190602401602060405180830381865afa15801561072b573d6000803e3d6000fd5b505050506040513d601f19601f8201168201806040525081019061074f9190611751565b1461079c5760405162461bcd60e51b815260206004820152601d60248201527f42616c616e6365206973206e6f742076657374696e6720616d6f756e740000006044820152606401610381565b6107a58561141f565b600180546001600160a01b0319166001600160a01b0395909516949094179093556040805160608101825263ffffffff93841680825292909316602084018190526001600160c01b0390941692018290526002805467ffffffffffffffff19169091176401000000009093029290921767ffffffffffffffff16600160401b90910217905550565b61083561146f565b6001600160a01b0381166108865760405162461bcd60e51b815260206004820152601860248201527742656e65666963696172792061646472657373207a65726f60401b6044820152606401610381565b600180546001600160a01b0319166001600160a01b0383169081179091556040519081527f1008eccd86b7b0367a8fd91dc07c1796d0501cd3288389270be997f9cc24665b906020015b60405180910390a150565b6108e361146f565b6040516370a0823160e01b81523060048201526000907f00000000000000000000000000000000000000000000000000000000000000006001600160a01b0316906370a0823190602401602060405180830381865afa15801561094a573d6000803e3d6000fd5b505050506040513d601f19601f8201168201806040525081019061096e9190611751565b9050806000036109b95760405162461bcd60e51b81526020600482015260166024820152754e6f2062616c616e636520746f20776974686472617760501b6044820152606401610381565b60405163a9059cbb60e01b8152336004820152602481018290527f00000000000000000000000000000000000000000000000000000000000000006001600160a01b03169063a9059cbb906044016020604051808303816000875af1158015610a26573d6000803e3d6000fd5b505050506040513d601f19601f82011682018060405250810190610a4a919061176a565b506040518181527f93f279076ca804aa4815e72d6789d3148fe0c0a89a8db4d1d40d930f94e7d51c906020016108d0565b60405163f2888dbb60e01b81523060048201527f00000000000000000000000000000000000000000000000000000000000000006001600160a01b03169063f2888dbb906024016020604051808303816000875af1158015610ae1573d6000803e3d6000fd5b505050506040513d601f19601f82011682018060405250810190610b059190611751565b50565b6001546001600160a01b03163314610b325760405162461bcd60e51b8152600401610381906116f2565b60405163cd3bde9560e01b8152600481018290527f00000000000000000000000000000000000000000000000000000000000000006001600160a01b03169063cd3bde95906024016103d3565b6001546001600160a01b03163314610ba95760405162461bcd60e51b8152600401610381906116f2565b60405163534a7e1d60e11b8152600481018290527f00000000000000000000000000000000000000000000000000000000000000006001600160a01b03169063a694fc3a906024016103d3565b610bfe61146f565b610c08600061141f565b565b6001546001600160a01b03163314610c345760405162461bcd60e51b8152600401610381906116f2565b7f00000000000000000000000000000000000000000000000000000000000000006001600160a01b0316633c37d05a6040518163ffffffff1660e01b8152600401600060405180830381600087803b158015610c8f57600080fd5b505af1158015610ca3573d6000803e3d6000fd5b50505050565b60405163b330fc5360e01b81523060048201526000908190819081908190819081906001600160a01b037f0000000000000000000000000000000000000000000000000000000000000000169063b330fc5390602401602060405180830381865afa158015610d1c573d6000803e3d6000fd5b505050506040513d601f19601f82011682018060405250810190610d40919061178c565b604051632ee814e160e21b81523060048201529092507f00000000000000000000000000000000000000000000000000000000000000006001600160a01b03169063bba0538490602401602060405180830381865afa158015610da7573d6000803e3d6000fd5b505050506040513d601f19601f82011682018060405250810190610dcb9190611751565b6040516368e5585d60e01b81523060048201529093507f00000000000000000000000000000000000000000000000000000000000000006001600160a01b0316906368e5585d90602401602060405180830381865afa158015610e32573d6000803e3d6000fd5b505050506040513d601f19601f82011682018060405250810190610e569190611751565b604051636f77926b60e01b81523060048201529096507f00000000000000000000000000000000000000000000000000000000000000006001600160a01b031690636f77926b9060240160e060405180830381865afa158015610ebd573d6000803e3d6000fd5b505050506040513d601f19601f82011682018060405250810190610ee191906117a9565b50949c9a9b5091999198509596509394509092915050565b60025460009063ffffffff80821691640100000000810490911690600160401b90046001600160c01b0316428310610f3b576001600160c01b03169392505050565b8163ffffffff164210610f52576000935050505090565b6000610f6463ffffffff8516426117fd565b90506000610f728585611810565b63ffffffff16905080610f8e836001600160c01b038616611834565b610f98919061184b565b610fab906001600160c01b0385166117fd565b9550505050505090565b6001546001600160a01b03163314610fdf5760405162461bcd60e51b8152600401610381906116f2565b6040516379ffcaad60e11b81526001600160a01b0382811660048301527f0000000000000000000000000000000000000000000000000000000000000000169063f3ff955a906024016103d3565b6001546001600160a01b031633146110575760405162461bcd60e51b8152600401610381906116f2565b6040516370a0823160e01b81523060048201526000907f00000000000000000000000000000000000000000000000000000000000000006001600160a01b0316906370a0823190602401602060405180830381865afa1580156110be573d6000803e3d6000fd5b505050506040513d601f19601f820116820180604052508101906110e29190611751565b9050806000036111235760405162461bcd60e51b815260206004820152600c60248201526b42616c616e6365207a65726f60a01b6044820152606401610381565b600061112d6114c9565b6111379083611738565b90506000611143610ef9565b90508082116111945760405162461bcd60e51b815260206004820181905260248201527f546f6b656e7320696e2062616c616e6365206e6f7420766573746564207965746044820152606401610381565b60006111a082846117fd565b905060008482116111b157816111b3565b845b60405163a9059cbb60e01b8152336004820152602481018290529091507f00000000000000000000000000000000000000000000000000000000000000006001600160a01b03169063a9059cbb906044016020604051808303816000875af1158015611223573d6000803e3d6000fd5b505050506040513d601f19601f82011682018060405250810190611247919061176a565b506040518181527fee57bdaf2480573432b9ff9ca4adb3a104d5e016f87db391ab72bea5acc843829060200160405180910390a15050505050565b6001546001600160a01b031633146112ac5760405162461bcd60e51b8152600401610381906116f2565b60405163095ea7b360e01b81526001600160a01b037f000000000000000000000000000000000000000000000000000000000000000081166004830152602482018390527f0000000000000000000000000000000000000000000000000000000000000000169063095ea7b3906044016020604051808303816000875af115801561133b573d6000803e3d6000fd5b505050506040513d601f19601f8201168201806040525081019061135f919061176a565b50604051633febaf9360e11b8152600481018290527f00000000000000000000000000000000000000000000000000000000000000006001600160a01b031690637fd75f26906024016103d3565b6113b561146f565b6001600160a01b03811661141a5760405162461bcd60e51b815260206004820152602660248201527f4f776e61626c653a206e6577206f776e657220697320746865207a65726f206160448201526564647265737360d01b6064820152608401610381565b610b05815b600080546001600160a01b038381166001600160a01b0319831681178455604051919092169283917f8be0079c531659141344cd1fd0a4f28419497f9722a3daafe3b4186f6b6457e09190a35050565b6000546001600160a01b03163314610c085760405162461bcd60e51b815260206004820181905260248201527f4f776e61626c653a2063616c6c6572206973206e6f7420746865206f776e65726044820152606401610381565b6040516368e5585d60e01b815230600482015260009081906001600160a01b037f000000000000000000000000000000000000000000000000000000000000000016906368e5585d90602401602060405180830381865afa158015611532573d6000803e3d6000fd5b505050506040513d601f19601f820116820180604052508101906115569190611751565b604051636f77926b60e01b815230600482015290915060009081906001600160a01b037f00000000000000000000000000000000000000000000000000000000000000001690636f77926b9060240160e060405180830381865afa1580156115c2573d6000803e3d6000fd5b505050506040513d601f19601f820116820180604052508101906115e691906117a9565b5050505092505091508082846115fc9190611738565b6116069190611738565b935050505090565b60006020828403121561162057600080fd5b5035919050565b6001600160a01b0381168114610b0557600080fd5b803563ffffffff8116811461165057600080fd5b919050565b600080600080600060a0868803121561166d57600080fd5b853561167881611627565b9450602086013561168881611627565b93506116966040870161163c565b92506116a46060870161163c565b915060808601356001600160c01b03811681146116c057600080fd5b809150509295509295909350565b6000602082840312156116e057600080fd5b81356116eb81611627565b9392505050565b60208082526016908201527553656e646572206e6f742062656e656669636961727960501b604082015260600190565b634e487b7160e01b600052601160045260246000fd5b8082018082111561174b5761174b611722565b92915050565b60006020828403121561176357600080fd5b5051919050565b60006020828403121561177c57600080fd5b815180151581146116eb57600080fd5b60006020828403121561179e57600080fd5b81516116eb81611627565b600080600080600080600060e0888a0312156117c457600080fd5b5050855160208701516040880151606089015160808a015160a08b015160c0909b0151949c939b50919990985090965094509092509050565b8181038181111561174b5761174b611722565b63ffffffff82811682821603908082111561182d5761182d611722565b5092915050565b808202811582820484141761174b5761174b611722565b60008261186857634e487b7160e01b600052601260045260246000fd5b50049056fea26469706673582212208d3d2b50c2244640fa3a92a43625e7ca248b6532b1885c3dd45afd1e784bdb3364736f6c63430008110033",
  "devdoc": {
    "kind": "dev",
    "methods": {
      "constructor": {
        "params": {
          "_api3Pool": "Api3Pool address",
          "_api3Token": "Api3Token address"
        }
      },
      "deployStakeableVesting(address,uint32,uint32,uint192)": {
        "details": "The sender needs to approve `amount` API3 tokens to this contract before calling this. The sender will be the owner of the StakeableVesting clone, allowing it to revoke the vesting.",
        "params": {
          "amount": "Amount of tokens to be vested over the period",
          "beneficiary": "Beneficiary of the vesting",
          "endTimestamp": "Ending timestamp of the vesting",
          "startTimestamp": "Starting timestamp of the vesting"
        },
        "returns": {
          "stakeableVesting": "StakeableVesting clone address"
        }
      }
    },
    "title": "Contract that deploys a StakeableVesting implementation and allows it to be cloned to create vestings",
    "version": 1
  },
  "userdoc": {
    "kind": "user",
    "methods": {
      "api3Token()": {
        "notice": "Api3Token address"
      },
      "deployStakeableVesting(address,uint32,uint32,uint192)": {
        "notice": "Deploys a StakeableVesting clone and transfers the vesting amount to it from the sender"
      },
      "stakeableVestingImplementation()": {
        "notice": "StakeableVesting implementation address"
      }
    },
    "version": 1
  },
  "storageLayout": {
    "storage": [],
    "types": null
  }
}